{
  "abi": [
    {
      "anonymous": false,
      "inputs": [
        {
          "indexed": false,
          "internalType": "address",
          "name": "issuer",
          "type": "address"
        },
        {
          "indexed": false,
          "internalType": "bytes32",
          "name": "credentialHash",
          "type": "bytes32"
        }
      ],
      "name": "CredentialCreated",
      "type": "event"
    },
    {
      "anonymous": false,
      "inputs": [
        {
          "indexed": false,
          "internalType": "address",
          "name": "issuer",
          "type": "address"
        },
        {
          "indexed": false,
          "internalType": "bytes32",
          "name": "credentialFormatHash",
          "type": "bytes32"
        }
      ],
      "name": "CredentialFormatCreated",
      "type": "event"
    },
    {
      "anonymous": false,
      "inputs": [
        {
          "indexed": false,
          "internalType": "string",
          "name": "name",
          "type": "string"
        },
        {
          "indexed": false,
          "internalType": "uint256",
          "name": "age",
          "type": "uint256"
        },
        {
          "indexed": false,
          "internalType": "bool",
          "name": "hasNFT",
          "type": "bool"
        },
        {
          "indexed": false,
          "internalType": "address",
          "name": "wallet",
          "type": "address"
        }
      ],
      "name": "MemberAdded",
      "type": "event"
    },
    {
      "inputs": [
        {
          "internalType": "address",
          "name": "memberAddress",
          "type": "address"
        }
      ],
      "name": "convertDAOMemberDataToJsonhash",
      "outputs": [
        {
          "internalType": "bytes32",
          "name": "",
          "type": "bytes32"
        }
      ],
      "stateMutability": "view",
      "type": "function"
    },
    {
      "inputs": [
        {
          "internalType": "string",
          "name": "_name",
          "type": "string"
        },
        {
          "internalType": "uint256",
          "name": "_age",
          "type": "uint256"
        },
        {
          "internalType": "bool",
          "name": "_hasNFT",
          "type": "bool"
        },
        {
          "internalType": "address",
          "name": "_wallet",
          "type": "address"
        }
      ],
      "name": "createCredential",
      "outputs": [
        {
          "internalType": "bytes32",
          "name": "",
          "type": "bytes32"
        }
      ],
      "stateMutability": "nonpayable",
      "type": "function"
    },
    {
      "inputs": [
        {
          "internalType": "string",
          "name": "_name",
          "type": "string"
        },
        {
          "internalType": "uint256",
          "name": "_age",
          "type": "uint256"
        },
        {
          "internalType": "bool",
          "name": "_hasNFT",
          "type": "bool"
        },
        {
          "internalType": "address",
          "name": "_wallet",
          "type": "address"
        }
      ],
      "name": "createCredentialFormat",
      "outputs": [
        {
          "internalType": "bytes32",
          "name": "",
          "type": "bytes32"
        }
      ],
      "stateMutability": "nonpayable",
      "type": "function"
    },
    {
      "inputs": [
        {
          "internalType": "string",
          "name": "name",
          "type": "string"
        },
        {
          "internalType": "bool",
          "name": "over18",
          "type": "bool"
        },
        {
          "internalType": "bool",
          "name": "hasNFT",
          "type": "bool"
        }
      ],
      "name": "createProofRequest",
      "outputs": [
        {
          "components": [
            {
              "internalType": "string",
              "name": "name",
              "type": "string"
            },
            {
              "internalType": "bool",
              "name": "over18",
              "type": "bool"
            },
            {
              "internalType": "bool",
              "name": "hasNFT",
              "type": "bool"
            }
          ],
          "internalType": "struct DCHero.proofRequestFormat",
          "name": "proofRequest",
          "type": "tuple"
        }
      ],
      "stateMutability": "pure",
      "type": "function"
    },
    {
      "inputs": [
        {
          "internalType": "address",
          "name": "",
          "type": "address"
        }
      ],
      "name": "credentialFormats",
      "outputs": [
        {
          "internalType": "bytes32",
          "name": "",
          "type": "bytes32"
        }
      ],
      "stateMutability": "view",
      "type": "function"
    },
    {
      "inputs": [
        {
          "internalType": "address",
          "name": "",
          "type": "address"
        }
      ],
      "name": "credentials",
      "outputs": [
        {
          "internalType": "bytes32",
          "name": "",
          "type": "bytes32"
        }
      ],
      "stateMutability": "view",
      "type": "function"
    },
    {
      "inputs": [
        {
          "internalType": "address",
          "name": "issuer",
          "type": "address"
        },
        {
          "internalType": "string",
          "name": "key",
          "type": "string"
        }
      ],
      "name": "getLookupHash",
      "outputs": [
        {
          "internalType": "bytes32",
          "name": "",
          "type": "bytes32"
        }
      ],
      "stateMutability": "pure",
      "type": "function"
    },
    {
      "inputs": [],
      "name": "members",
      "outputs": [
        {
          "internalType": "contract DAOMember",
          "name": "",
          "type": "address"
        }
      ],
      "stateMutability": "view",
      "type": "function"
    },
    {
      "inputs": [
        {
          "components": [
            {
              "internalType": "string",
              "name": "name",
              "type": "string"
            },
            {
              "internalType": "bool",
              "name": "over18",
              "type": "bool"
            },
            {
              "internalType": "bool",
              "name": "hasNFT",
              "type": "bool"
            }
          ],
          "internalType": "struct DCHero.proofRequestFormat",
          "name": "proofRequest",
          "type": "tuple"
        }
      ],
      "name": "verifyProof",
      "outputs": [
        {
          "internalType": "bool",
          "name": "",
          "type": "bool"
        }
      ],
      "stateMutability": "nonpayable",
      "type": "function"
    },
    {
      "inputs": [
        {
          "internalType": "bytes32",
          "name": "proofRequestHash",
          "type": "bytes32"
        }
      ],
      "name": "verifyProofZKP",
      "outputs": [
        {
          "internalType": "bytes32",
          "name": "",
          "type": "bytes32"
        }
      ],
      "stateMutability": "pure",
      "type": "function"
    }
  ],
  "bytecode": {
    "object": "0x608060405260405161001090610086565b6020808252600a908201526944434865726f2044414f60b01b6040820152606001604051809103906000f08015801561004d573d6000803e3d6000fd5b50600280546001600160a81b0319166001600160a01b039290921691909117600160a01b17905534801561008057600080fd5b50610093565b610f8980610c2983390190565b610b87806100a26000396000f3fe608060405234801561001057600080fd5b506004361061009e5760003560e01c80639a7db747116100665780639a7db74714610122578063a18f1b3414610142578063a22267551461017b578063bdd4d18d1461018e578063fe7ea6e6146101b957600080fd5b806302e6198c146100a357806307c79c47146100c95780631aa526ee146100dc5780636016dd4a146100ef5780638d12f0791461010f575b600080fd5b6100b66100b1366004610623565b6101dc565b6040519081526020015b60405180910390f35b6100b66100d736600461077b565b610212565b6100b66100ea3660046107e7565b61032e565b6100b66100fd366004610800565b60016020526000908152604090205481565b6100b661011d36600461077b565b610373565b6100b6610130366004610800565b60006020819052908152604090205481565b61016e610150366004610824565b60408051606081018252938452911515602084015215159082015290565b6040516100c091906108d8565b6100b6610189366004610800565b610425565b6002546101a1906001600160a01b031681565b6040516001600160a01b0390911681526020016100c0565b6101cc6101c7366004610918565b6104ea565b60405190151581526020016100c0565b60008383836040516020016101f3939291906109c8565b6040516020818303038152906040528051906020012090509392505050565b6000808585858560405160200161022c94939291906109f4565b60408051808303601f190181528282528051602080830191909120338552908401819052909350917f6eaac2fdcfba516a702c4a96f02dc393131894c2f718d8261e9af4221f093a2f910160405180910390a16002546040516395f999df60e01b81526001600160a01b03909116906395f999df906102b5908a908a908a908a90600401610a38565b600060405180830381600087803b1580156102cf57600080fd5b505af11580156102e3573d6000803e3d6000fd5b505050507f8beb12d421ce5e7e8e37add2fcdc40be8071792af658f7772661c0163aea02058787878760405161031c9493929190610a38565b60405180910390a19695505050505050565b60405162461bcd60e51b8152602060048201526013602482015272139bdd081a5b5c1b195b595b9d1959081e595d606a1b604482015260009060640160405180910390fd5b6040805160808101825285815260208082018690528415158284018190526001600160a01b03851660608401819052935160009485936103b9938b938b939192016109f4565b60408051808303601f1901815282825280516020808301919091203360008181528084528590208290558552908401819052909350917f4669cbc8b5917db23eb84081d4ce07b7d8fefb0a6177aa17585620d27ad113d8910160405180910390a1979650505050505050565b604051631512f02f60e21b81526001600160a01b03821660048201819052600091839183918291829182919063544bc0bc90602401600060405180830381865afa158015610477573d6000803e3d6000fd5b505050506040513d6000823e601f3d908101601f1916820160405261049f9190810190610a70565b93509350935093506000848484846040516020016104c09493929190610a38565b60405160208183030381529060405290506000816104dd90610b0e565b9998505050505050505050565b600254604051631512f02f60e21b81523360048201526000918291829182916001600160a01b039091169063544bc0bc90602401600060405180830381865afa15801561053b573d6000803e3d6000fd5b505050506040513d6000823e601f3d908101601f191682016040526105639190810190610a70565b5092509250925060008360405160200161057d9190610b35565b60408051601f19818403018152908290528051602091820120885190926105a49201610b35565b6040516020818303038152906040528051906020012014905060008660200151806105cf5750601284115b905060008760400151806105ea575083151588604001511515145b90508280156105f65750815b80156105ff5750805b98975050505050505050565b6001600160a01b038116811461062057600080fd5b50565b60008060006040848603121561063857600080fd5b83356106438161060b565b9250602084013567ffffffffffffffff8082111561066057600080fd5b818601915086601f83011261067457600080fd5b81358181111561068357600080fd5b87602082850101111561069557600080fd5b6020830194508093505050509250925092565b634e487b7160e01b600052604160045260246000fd5b604051601f8201601f1916810167ffffffffffffffff811182821017156106e7576106e76106a8565b604052919050565b600067ffffffffffffffff821115610709576107096106a8565b50601f01601f191660200190565b600082601f83011261072857600080fd5b813561073b610736826106ef565b6106be565b81815284602083860101111561075057600080fd5b816020850160208301376000918101602001919091529392505050565b801515811461062057600080fd5b6000806000806080858703121561079157600080fd5b843567ffffffffffffffff8111156107a857600080fd5b6107b487828801610717565b9450506020850135925060408501356107cc8161076d565b915060608501356107dc8161060b565b939692955090935050565b6000602082840312156107f957600080fd5b5035919050565b60006020828403121561081257600080fd5b813561081d8161060b565b9392505050565b60008060006060848603121561083957600080fd5b833567ffffffffffffffff81111561085057600080fd5b61085c86828701610717565b935050602084013561086d8161076d565b9150604084013561087d8161076d565b809150509250925092565b60005b838110156108a357818101518382015260200161088b565b50506000910152565b600081518084526108c4816020860160208601610888565b601f01601f19169290920160200192915050565b6020815260008251606060208401526108f460808401826108ac565b90506020840151151560408401526040840151151560608401528091505092915050565b60006020828403121561092a57600080fd5b813567ffffffffffffffff8082111561094257600080fd5b908301906060828603121561095657600080fd5b604051606081018181108382111715610971576109716106a8565b60405282358281111561098357600080fd5b61098f87828601610717565b825250602083013591506109a28261076d565b816020820152604083013592506109b88361076d565b6040810192909252509392505050565b6bffffffffffffffffffffffff198460601b168152818360148301376000910160140190815292915050565b60008551610a06818460208a01610888565b919091019384525090151560f81b602083015260601b6bffffffffffffffffffffffff19166021820152603501919050565b608081526000610a4b60808301876108ac565b60208301959095525091151560408301526001600160a01b0316606090910152919050565b60008060008060808587031215610a8657600080fd5b845167ffffffffffffffff811115610a9d57600080fd5b8501601f81018713610aae57600080fd5b8051610abc610736826106ef565b818152886020838501011115610ad157600080fd5b610ae2826020830160208601610888565b809650505050602085015192506040850151610afd8161076d565b60608601519092506107dc8161060b565b80516020808301519190811015610b2f576000198160200360031b1b821691505b50919050565b60008251610b47818460208701610888565b919091019291505056fea2646970667358221220558bbf3ec587f30c01daf7b86e05f426e23ee383fb40b9174cfb83b00045c90664736f6c6343000814003360806040523480156200001157600080fd5b5060405162000f8938038062000f89833981016040819052620000349162000077565b6001600081905580546001600160a01b031916331790556002620000598282620001db565b5050620002a7565b634e487b7160e01b600052604160045260246000fd5b600060208083850312156200008b57600080fd5b82516001600160401b0380821115620000a357600080fd5b818501915085601f830112620000b857600080fd5b815181811115620000cd57620000cd62000061565b604051601f8201601f19908116603f01168101908382118183101715620000f857620000f862000061565b8160405282815288868487010111156200011157600080fd5b600093505b8284101562000135578484018601518185018701529285019262000116565b600086848301015280965050505050505092915050565b600181811c908216806200016157607f821691505b6020821081036200018257634e487b7160e01b600052602260045260246000fd5b50919050565b601f821115620001d657600081815260208120601f850160051c81016020861015620001b15750805b601f850160051c820191505b81811015620001d257828155600101620001bd565b5050505b505050565b81516001600160401b03811115620001f757620001f762000061565b6200020f816200020884546200014c565b8462000188565b602080601f8311600181146200024757600084156200022e5750858301515b600019600386901b1c1916600185901b178555620001d2565b600085815260208120601f198616915b82811015620002785788860151825594840194600190910190840162000257565b5085821015620002975787850151600019600388901b60f8161c191681555b5050505050600190811b01905550565b610cd280620002b76000396000f3fe608060405234801561001057600080fd5b506004361061009e5760003560e01c806395f999df1161006657806395f999df1461014a578063997072f71461015d5780639b4151a61461016e578063aceae4a914610183578063d2d7da621461018b57600080fd5b80631036e0a8146100a3578063544bc0bc146100ad5780635daf08ca146100d957806363db91ab146100ec5780638da5cb5b1461011f575b600080fd5b6100ab61019e565b005b6100c06100bb3660046108d9565b6101ef565b6040516100d09493929190610941565b60405180910390f35b6100c06100e7366004610979565b610360565b60408051808201909152600e81526d48656c6c6f2066726f6d2044414f60901b60208201525b6040516100d09190610992565b600154610132906001600160a01b031681565b6040516001600160a01b0390911681526020016100d0565b6100ab6101583660046109cb565b610435565b6003546040519081526020016100d0565b6101766105aa565b6040516100d09190610aa7565b6101126106ce565b6100ab6101993660046108d9565b61075c565b6001546001600160a01b031633146101ed5760405162461bcd60e51b815260206004820152600d60248201526c2737ba103a34329037bbb732b960991b60448201526064015b60405180910390fd5b565b6001600160a01b0381166000908152600460205260408120546003805460609392839283928290811061022457610224610b3d565b90600052602060002090600302016000016003828154811061024857610248610b3d565b9060005260206000209060030201600101546003838154811061026d5761026d610b3d565b906000526020600020906003020160020160009054906101000a900460ff166003848154811061029f5761029f610b3d565b906000526020600020906003020160020160019054906101000a90046001600160a01b03168380546102d090610b53565b80601f01602080910402602001604051908101604052809291908181526020018280546102fc90610b53565b80156103495780601f1061031e57610100808354040283529160200191610349565b820191906000526020600020905b81548152906001019060200180831161032c57829003601f168201915b505050505093509450945094509450509193509193565b6003818154811061037057600080fd5b906000526020600020906003020160009150905080600001805461039390610b53565b80601f01602080910402602001604051908101604052809291908181526020018280546103bf90610b53565b801561040c5780601f106103e15761010080835404028352916020019161040c565b820191906000526020600020905b8154815290600101906020018083116103ef57829003601f168201915b50505050600183015460029093015491929160ff8116915061010090046001600160a01b031684565b61043d61019e565b6001600160a01b0381166000908152600460205260409020541561049b5760405162461bcd60e51b81526020600482015260156024820152744d656d62657220616c72656164792065786973747360581b60448201526064016101e4565b600380546040805160808101825287815260208101879052851515918101919091526001600160a01b038416606082015260018201835560008390528051919290919083027fc2575a0e9e593c00f959f8c92f12db2869c3395a3b0502d05e2516446f71f85b0190819061050f9082610bdc565b506020828101516001830155604080840151600290930180546060909501516001600160a81b0319909516931515610100600160a81b031916939093176101006001600160a01b039586160217909255918416600081815260048452829020849055905183815290917fede8eed4383e9241982619b94dd83e488b274cced0fd07b8c0092a393defd52f910160405180910390a25050505050565b60606003805480602002602001604051908101604052809291908181526020016000905b828210156106c5578382906000526020600020906003020160405180608001604052908160008201805461060190610b53565b80601f016020809104026020016040519081016040528092919081815260200182805461062d90610b53565b801561067a5780601f1061064f5761010080835404028352916020019161067a565b820191906000526020600020905b81548152906001019060200180831161065d57829003601f168201915b505050918352505060018281015460208084019190915260029093015460ff81161515604084015261010090046001600160a01b0316606090920191909152918352920191016105ce565b50505050905090565b600280546106db90610b53565b80601f016020809104026020016040519081016040528092919081815260200182805461070790610b53565b80156107545780601f1061072957610100808354040283529160200191610754565b820191906000526020600020905b81548152906001019060200180831161073757829003601f168201915b505050505081565b61076461019e565b6001600160a01b038116600090815260046020526040812054908190036107c55760405162461bcd60e51b815260206004820152601560248201527413595b58995c88191bd95cc81b9bdd08195e1a5cdd605a1b60448201526064016101e4565b600381815481106107d8576107d8610b3d565b600091825260208220600390910201906107f28282610867565b50600060018201819055600290910180546001600160a81b03191690556001600160a01b038316808252600460205260408083209290925590517f94601b735a18963e49c7a578a11fd5ac07c80e6dee535c7b5d559d2f6700720d9061085b9084815260200190565b60405180910390a25050565b50805461087390610b53565b6000825580601f10610883575050565b601f0160209004906000526020600020908101906108a191906108a4565b50565b5b808211156108b957600081556001016108a5565b5090565b80356001600160a01b03811681146108d457600080fd5b919050565b6000602082840312156108eb57600080fd5b6108f4826108bd565b9392505050565b6000815180845260005b8181101561092157602081850181015186830182015201610905565b506000602082860101526020601f19601f83011685010191505092915050565b60808152600061095460808301876108fb565b60208301959095525091151560408301526001600160a01b0316606090910152919050565b60006020828403121561098b57600080fd5b5035919050565b6020815260006108f460208301846108fb565b634e487b7160e01b600052604160045260246000fd5b803580151581146108d457600080fd5b600080600080608085870312156109e157600080fd5b843567ffffffffffffffff808211156109f957600080fd5b818701915087601f830112610a0d57600080fd5b813581811115610a1f57610a1f6109a5565b604051601f8201601f19908116603f01168101908382118183101715610a4757610a476109a5565b816040528281528a6020848701011115610a6057600080fd5b82602086016020830137600060208483010152809850505050505060208501359250610a8e604086016109bb565b9150610a9c606086016108bd565b905092959194509250565b60006020808301818452808551808352604092508286019150828160051b87010184880160005b83811015610b2f57603f19898403018552815160808151818652610af4828701826108fb565b838b0151878c01528984015115158a8801526060938401516001600160a01b0316939096019290925250509386019390860190600101610ace565b509098975050505050505050565b634e487b7160e01b600052603260045260246000fd5b600181811c90821680610b6757607f821691505b602082108103610b8757634e487b7160e01b600052602260045260246000fd5b50919050565b601f821115610bd757600081815260208120601f850160051c81016020861015610bb45750805b601f850160051c820191505b81811015610bd357828155600101610bc0565b5050505b505050565b815167ffffffffffffffff811115610bf657610bf66109a5565b610c0a81610c048454610b53565b84610b8d565b602080601f831160018114610c3f5760008415610c275750858301515b600019600386901b1c1916600185901b178555610bd3565b600085815260208120601f198616915b82811015610c6e57888601518255948401946001909101908401610c4f565b5085821015610c8c5787850151600019600388901b60f8161c191681555b5050505050600190811b0190555056fea2646970667358221220a6c0a188a8072782f4f366e572cf811350487ad24162e1a4abb57737a3ad736e64736f6c63430008140033",
    "linkReferences": {}
  },
  "methodIdentifiers": {
    "convertDAOMemberDataToJsonhash(address)": "a2226755",
    "createCredential(string,uint256,bool,address)": "07c79c47",
    "createCredentialFormat(string,uint256,bool,address)": "8d12f079",
    "createProofRequest(string,bool,bool)": "a18f1b34",
    "credentialFormats(address)": "9a7db747",
    "credentials(address)": "6016dd4a",
    "getLookupHash(address,string)": "02e6198c",
    "members()": "bdd4d18d",
    "verifyProof((string,bool,bool))": "fe7ea6e6",
    "verifyProofZKP(bytes32)": "1aa526ee"
  },
  "id": 21
}